:1000000084C09FC09EC09DC09CC09BC09AC09AC027
:1000100098C097C096C095C094C0DAC302C414C4F7
:100020006AC4C7C423C581C582C5EDE4F1F6F1EA0F
:10003000EDECEAF1ECEAEDECE7EBF1F1EAEDECEAFC
:10004000F1E7E7E4EFE4F1EFEFEDEAEDF1EDF1EDEB
:10005000E4F1F0ECEDF1F0F0F1F1EDF1EDF1EDE7BF
:10006000E7E4EFE4F1EFF0EDEADBDBDBD1F0DBE836
:10007000F0DBE7E7E7E8F0D9D1F0DBDBDBDBD1F061
:10008000DBE8F0DBE7E7E7E8F0D9D1F0DBDBDBDB4F
:10009000D1F0E7EAECEAE6F1F1EFEBEAF1EAEAE7C0
:1000A000F1EAEEE7E6E7E6E7EAECEAE6F1F1EFECA3
:1000B000EAF1EAF1EBEBEAEBE7EBE4EBE7EBE4F197
:1000C000EBEBE4EBE7EBEAEBE7EBEBE4F1EBE4F192
:1000D000EBEBEBEBEBEAEBE7F1E4EBE7EBE4EBEB81
:1000E000EBE4EBE7EBEAF1E7EBE4EBE407070B0704
:1000F0000D0B0B0E070D070E0B0D078F8FCF8FAF5C
:10010000EF4F5FDFFF8F9FDFFF8F11241FBECFE513
:10011000D1E0DEBFCDBF10E0A0E6B0E0EEE5FBE051
:1001200003C0C89531960D92AA36B107D1F710E0F9
:10013000AAE6B0E001C01D92AF36B107E1F718D3CF
:100140000CC55ECF1F920F920FB60F9211248F93A2
:100150009F93EF93FF9380916A00833009F495C0D9
:10016000843030F48130F9F0823008F04DC00AC09C
:10017000853009F43CC1853008F4D8C0863009F0D8
:10018000B6C1A5C180916B00813009F0B0C185B3C3
:1001900090E2892785BBE0916D00F0E0E25DFF4FC2
:1001A000C895E02DA3C180916B00813061F485B3C7
:1001B00090E2892785BBE0916D00F0E0E65DFF4F9E
:1001C000C895E02D93C180916B00823061F485B3B6
:1001D00090E2892785BBE0916D00F0E0EE56FF4F7D
:1001E000C895E02D83C180916B00833009F07FC1F9
:1001F00085B390E2892785BBE0916D00F0E0E75977
:10020000FF4FC895E02D72C180916B00813061F481
:1002100085B390E2892785BBE0916D00F0E0E65D53
:10022000FF4FC895E02D62C180916B00823061F470
:1002300085B390E2892785BBE0916D00F0E0E65D33
:10024000FF4FC895E02D52C180916B00833061F45F
:1002500085B390E2892785BBE0916D00F0E0E75916
:10026000FF4FC895E02D42C180916B00843009F0AA
:100270003EC185B390E2892785BBE0916D00F0E037
:10028000EE56FF4FC895E02D31C180916B00813053
:1002900061F485B390E2892785BBE0916D00F0E0C1
:1002A000E65DFF4FC895E02D21C180916B00823043
:1002B00061F485B390E2892785BBE0916D00F0E0A1
:1002C000E65DFF4FC895E02D11C180916B00833032
:1002D00061F485B390E2892785BBE0916D00F0E081
:1002E000E65DFF4FC895E02D01C180916B00843021
:1002F00061F485B390E2892785BBE0916D00F0E061
:10030000E759FF4FC895E02DF1C080916B00853013
:1003100009F0EDC085B390E2892785BBE0916D00BF
:10032000F0E0EE56FF4FC895E02DE0C080916B00E5
:10033000813061F485B390E2892785BBE0916D003F
:10034000F0E0E65DFF4FC895E02DD0C080916B00D6
:10035000823061F485B390E2892785BBE0916D001E
:10036000F0E0E65DFF4FC895E02DC0C080916B00C6
:10037000833061F485B390E2892785BBE0916D00FD
:10038000F0E0E65DFF4FC895E02DB0C080916B00B6
:10039000843061F485B390E2892785BBE0916D00DC
:1003A000F0E0E65DFF4FC895E02DA0C080916B00A6
:1003B000853061F485B390E2892785BBE0916D00BB
:1003C000F0E0E759FF4FC895E02D90C080916B0099
:1003D000863009F08CC085B390E2892785BBE09117
:1003E0006D00F0E0EE56FF4FC895E02D7FC0809184
:1003F0006B00813061F485B390E2892785BBE09181
:100400006D00F0E0E65DFF4FC895E02D6FC0809174
:100410006B00823061F485B390E2892785BBE0915F
:100420006D00F0E0E65DFF4FC895E02D5FC0809164
:100430006B00833061F485B390E2892785BBE0913E
:100440006D00F0E0E65DFF4FC895E02D4FC0809154
:100450006B00843061F485B390E2892785BBE0911D
:100460006D00F0E0E65DFF4FC895E02D3FC0809144
:100470006B00853061F485B390E2892785BBE091FC
:100480006D00F0E0E65DFF4FC895E02D2FC0809134
:100490006B00863061F485B390E2892785BBE091DB
:1004A0006D00F0E0E759FF4FC895E02D1FC0809127
:1004B0006B008730E1F485B390E2892785BBE0913A
:1004C0006D00F0E0EE56FF4FC895E02D0FC0809113
:1004D0006B00813061F485B390E2892785BBE091A0
:1004E0006D00F0E0ED54FF4FC895E02DE2BFFF91A5
:1004F000EF919F918F910F900FBE0F901F901895C5
:1005000010926C0010926E008FE080936900089545
:10051000782F20E049E050E009C0E42FF52F319713
:10052000F1F70197D1F72F5F223019F080E197E2C0
:10053000F4CF272F30E0E22FF32FE05AFF4F8081D6
:100540008BBB60936B0070936D0049E050E00DC071
:1005500080E197E2E42FF52F3197F1F70197D1F77A
:1005600080916D008F5F80936D0080916D0090E0B1
:10057000281739076CF780E197E229E030E0E22F95
:10058000F32F3197F1F70197D1F78FE08BBB1092E2
:100590006B0008958FEF84BB8FED85BB80EF8ABB26
:1005A0008FE08BBB84E083BF82E089BF789408959D
:1005B00090E049E050E00AC020E137E2E42FF52F57
:1005C0003197F1F721503040C9F79F5F9817A0F39A
:1005D000089580936B0010926D00B0916000A0911F
:1005E000610070916200609163004BEF53EB29E072
:1005F00030E021C0BBBB842F952F0197F1F7ABBB37
:100600008CE49DE1E22FF32F3197F1F70197D1F7B9
:100610007BBB8CE49DE1E22FF32F3197F1F701973B
:10062000D1F76BBB842F952F0197F1F780916D0067
:100630008F5F80936D0080916D008132D8F28FE0E2
:100640008BBB10926B00089580936B0010926D002D
:100650005FE929E030E04FE617C05BBB88E99AE329
:10066000E22FF32F3197F1F70197D1F74BBB88E9D0
:100670009AE3E22FF32F3197F1F70197D1F78091A9
:100680006D008F5F80936D0080916D00893228F33B
:100690008FE08BBB10926B0010926A00089581E08E
:1006A00080936B0010926D0070916000609161000A
:1006B000509162004091630029E030E029C07BBB8B
:1006C0008CE49DE1E22FF32F3197F1F70197D1F7F9
:1006D0006BBB80E197E2E22FF32F3197F1F701979F
:1006E000D1F75BBB80E197E2E22FF32F3197F1F76F
:1006F0000197D1F74BBB8CE49DE1E22FF32F3197AB
:10070000F1F70197D1F780916D008F5F80936D00B5
:1007100080916D00893398F210926B0081E0809394
:100720006B0010926D005FE929E030E04FE617C0E2
:100730005BBB88E99AE3E22FF32F3197F1F701973A
:10074000D1F74BBB88E99AE3E22FF32F3197F1F70A
:100750000197D1F780916D008F5F80936D0080913C
:100760006D00893328F310926B008FE08BBB0895E6
:10077000BF92CF92DF92EF92FF920F931F93CF938E
:10078000DF938FEF84BB8FED85BB80EF8ABB8FE05B
:100790008BBB84E083BF82E089BF78941FE027E0B1
:1007A000B22E99E9E92E93E0F92ECBEFD3EBECEEE4
:1007B000F0E0C895002D89E0C82ED12C80916A0008
:1007C000E82FF0E0E830F105C8F7E35FFF4F099448
:1007D00089B380936800809168008F3079F38E2D03
:1007E0009F2D0197F1F789B38F3041F381E080931A
:1007F0006B0010926D000DC080E29EE4EC2DFD2D8B
:100800003197F1F70197D1F780916D008F5F809359
:100810006D0080916D008B3378F310926B0081E056
:100820000CC080E061E074DE89B38F30E9F389B3F6
:10083000801731F482E0CDDE82E080936A00BECF83
:1008400089B3801789F355C010926C0010926E0026
:100850001093690080E061E05BDE81E062E058DED9
:100860008C2F9D2F0197F1F789B38F30E9F399B35E
:10087000809169009817C1F389B3E0916E00F0E0B0
:10088000E351FF4FC895E02D8E17F1F4E0916E0013
:10089000F0E0E450FF4FC895E02DEBBB80916C0079
:1008A0008F5F80936C0080916C00823021F484E033
:1008B00090DE83E0C2CF89B38093690080916E009F
:1008C0008F5F80936E00CCCF89B3E0916E00F0E033
:1008D000E351FF4FC895E02D8E1709F4C5CF89B3BA
:1008E0008F3009F4C1CF99B380916900981709F44A
:1008F000BBCF83E018C110926C0010926E00109371
:10090000690080E061E004DE82E062E001DE81E017
:1009100063E0FEDD8C2F9D2F0197F1F789B38F30B7
:10092000E9F399B3809169009817C1F38C2F9D2F3B
:100930000197F1F789B3E0916E00F0E0E151FF4FCC
:10094000C895E02D8E17F1F4E0916E00F0E0E250D2
:10095000FF4FC895E02DEBBB80916C008F5F8093BB
:100960006C0080916C00833021F485E032DE84E0FD
:1009700064CF89B38093690080916E008F5F80930C
:100980006E00C8CF89B3E0916E00F0E0E151FF4FF7
:10099000C895E02D8E1709F4C1CF89B38F3009F4C3
:1009A000BDCF99B380916900981709F4B7CF84E05F
:1009B000BAC010926C0010926E001093690081E032
:1009C00061E0A6DD83E062E0A3DD80E063E0A0DD1E
:1009D00082E064E09DDD8C2F9D2F0197F1F789B3B4
:1009E0008F30E9F399B3809169009817C1F389B307
:1009F000E0916E00F0E0EE50FF4FC895E02D8E17AD
:100A0000F1F4E0916E00F0E0EF5FFE4FC895E02D4D
:100A1000EBBB80916C008F5F80936C0080916C00C9
:100A2000843021F486E0D5DD85E007CF89B380935B
:100A3000690080916E008F5F80936E00CCCF89B388
:100A4000E0916E00F0E0E151FF4FC895E02D8E1768
:100A500009F4C5CF89B38F3009F4C1CF99B3809120
:100A60006900981709F4BBCF85E05DC010926C0057
:100A700010926E001093690080E061E049DD83E030
:100A800062E046DD81E063E043DD82E064E040DD7A
:100A900080E065E03DDD8C2F9D2F0197F1F789B354
:100AA0008F30E9F399B3809169009817C1F389B346
:100AB000E0916E00F0E0EA50FF4FC895E02D8E17F0
:100AC000E1F4E0916E00F0E0EB5FFE4FC895E02DA1
:100AD000EBBB80916C008F5F80936C0080916C0009
:100AE000853011F486E0A9CE89B3809369008091A6
:100AF0006E008F5F80936E00CECF89B3E0916E0061
:100B0000F0E0E151FF4FC895E02D8E1709F4C7CFF3
:100B100089B38F3009F4C3CF99B3809169009817D6
:100B200009F4BDCF86E090DD49CEB9DD13C01BBB13
:100B300089B3873059F48E2D9F2D0197F1F789B332
:100B4000873009F03BCE10926A0038CE89B38730E7
:0E0B500009F434CEB0926A0031CEF894FFCF93
:0A0B5E008F4F2F1F070B0D0E0F0F16
:00000001FF
